{
	"data": {
		"bytecode": {
			"linkReferences": {},
			"object": "6080604052608660025561012460035561014e6004556101ec60055534801561002757600080fd5b50600080546001018155805261053f806100426000396000f3fe608060405234801561001057600080fd5b50600436106100575760003560e01c80630db648ab1461005c578063c2bf525014610078578063c306ce2814610081578063cb25131e1461008a578063e73e14bf14610093575b600080fd5b61006560025481565b6040519081526020015b60405180910390f35b61006560035481565b61006560045481565b61006560055481565b6100a66100a13660046103cd565b6100b3565b60405161006f91906103fb565b604080518082019091526000815260606020820152600080604051806040016040528060008152602001600060016000886001600160a01b03166001600160a01b03168152602001908152602001600020548154811061012357634e487b7160e01b600052603260045260246000fd5b9060005260206000209060020201600101805480602002602001604051908101604052809291908181526020016000905b828210156101bb5760008481526020908190206040805160a0810182526005860290920180546001600160a01b0316835260018082015484860152600282015492840192909252600381015460608401526004015460808301529083529092019101610154565b505050915250905060005b816020015151811015610291576000610209836020015183815181106101fc57634e487b7160e01b600052603260045260246000fd5b602002602001015161029b565b9050808360200151838151811061023057634e487b7160e01b600052603260045260246000fd5b602002602001015160800181815250508260200151828151811061026457634e487b7160e01b600052603260045260246000fd5b6020026020010151602001518461027b9190610485565b935061028a9050600182610485565b90506101c6565b5090815292915050565b6000808260400151426102ae91906104dc565b905060008360600151600114156103165750606083015160c8906102d390603c6104bd565b6020850151839060646102e681866104dc565b6102f0919061049d565b6102fa91906104bd565b61030491906104bd565b61030e919061049d565b949350505050565b83606001516002141561032c575060025461036a565b836060015160031415610342575060035461036a565b836060015160041415610358575060045461036a565b83606001516005141561036a57506005545b60008460600151601861037d91906104bd565b61038990610e106104bd565b60208601518490606461039c81876104dc565b6103a6919061049d565b6103b091906104bd565b6103ba91906104bd565b6103c4919061049d565b95945050505050565b6000602082840312156103de578081fd5b81356001600160a01b03811681146103f4578182fd5b9392505050565b60006020808352606080840185518386015282860151604080818801528282518085526080945084890191508684019350875b8181101561047657845180516001600160a01b03168452888101518985015284810151858501528781015188850152860151868401529387019360a09092019160010161042e565b50909998505050505050505050565b60008219821115610498576104986104f3565b500190565b6000826104b857634e487b7160e01b81526012600452602481fd5b500490565b60008160001904831182151516156104d7576104d76104f3565b500290565b6000828210156104ee576104ee6104f3565b500390565b634e487b7160e01b600052601160045260246000fdfea2646970667358221220b4a5474170ace59e360cd0f9e7b011d4c93c807ca4be1b9e5bf51fba062c091164736f6c63430008040033",
			"opcodes": "PUSH1 0x80 PUSH1 0x40 MSTORE PUSH1 0x86 PUSH1 0x2 SSTORE PUSH2 0x124 PUSH1 0x3 SSTORE PUSH2 0x14E PUSH1 0x4 SSTORE PUSH2 0x1EC PUSH1 0x5 SSTORE CALLVALUE DUP1 ISZERO PUSH2 0x27 JUMPI PUSH1 0x0 DUP1 REVERT JUMPDEST POP PUSH1 0x0 DUP1 SLOAD PUSH1 0x1 ADD DUP2 SSTORE DUP1 MSTORE PUSH2 0x53F DUP1 PUSH2 0x42 PUSH1 0x0 CODECOPY PUSH1 0x0 RETURN INVALID PUSH1 0x80 PUSH1 0x40 MSTORE CALLVALUE DUP1 ISZERO PUSH2 0x10 JUMPI PUSH1 0x0 DUP1 REVERT JUMPDEST POP PUSH1 0x4 CALLDATASIZE LT PUSH2 0x57 JUMPI PUSH1 0x0 CALLDATALOAD PUSH1 0xE0 SHR DUP1 PUSH4 0xDB648AB EQ PUSH2 0x5C JUMPI DUP1 PUSH4 0xC2BF5250 EQ PUSH2 0x78 JUMPI DUP1 PUSH4 0xC306CE28 EQ PUSH2 0x81 JUMPI DUP1 PUSH4 0xCB25131E EQ PUSH2 0x8A JUMPI DUP1 PUSH4 0xE73E14BF EQ PUSH2 0x93 JUMPI JUMPDEST PUSH1 0x0 DUP1 REVERT JUMPDEST PUSH2 0x65 PUSH1 0x2 SLOAD DUP2 JUMP JUMPDEST PUSH1 0x40 MLOAD SWAP1 DUP2 MSTORE PUSH1 0x20 ADD JUMPDEST PUSH1 0x40 MLOAD DUP1 SWAP2 SUB SWAP1 RETURN JUMPDEST PUSH2 0x65 PUSH1 0x3 SLOAD DUP2 JUMP JUMPDEST PUSH2 0x65 PUSH1 0x4 SLOAD DUP2 JUMP JUMPDEST PUSH2 0x65 PUSH1 0x5 SLOAD DUP2 JUMP JUMPDEST PUSH2 0xA6 PUSH2 0xA1 CALLDATASIZE PUSH1 0x4 PUSH2 0x3CD JUMP JUMPDEST PUSH2 0xB3 JUMP JUMPDEST PUSH1 0x40 MLOAD PUSH2 0x6F SWAP2 SWAP1 PUSH2 0x3FB JUMP JUMPDEST PUSH1 0x40 DUP1 MLOAD DUP1 DUP3 ADD SWAP1 SWAP2 MSTORE PUSH1 0x0 DUP2 MSTORE PUSH1 0x60 PUSH1 0x20 DUP3 ADD MSTORE PUSH1 0x0 DUP1 PUSH1 0x40 MLOAD DUP1 PUSH1 0x40 ADD PUSH1 0x40 MSTORE DUP1 PUSH1 0x0 DUP2 MSTORE PUSH1 0x20 ADD PUSH1 0x0 PUSH1 0x1 PUSH1 0x0 DUP9 PUSH1 0x1 PUSH1 0x1 PUSH1 0xA0 SHL SUB AND PUSH1 0x1 PUSH1 0x1 PUSH1 0xA0 SHL SUB AND DUP2 MSTORE PUSH1 0x20 ADD SWAP1 DUP2 MSTORE PUSH1 0x20 ADD PUSH1 0x0 KECCAK256 SLOAD DUP2 SLOAD DUP2 LT PUSH2 0x123 JUMPI PUSH4 0x4E487B71 PUSH1 0xE0 SHL PUSH1 0x0 MSTORE PUSH1 0x32 PUSH1 0x4 MSTORE PUSH1 0x24 PUSH1 0x0 REVERT JUMPDEST SWAP1 PUSH1 0x0 MSTORE PUSH1 0x20 PUSH1 0x0 KECCAK256 SWAP1 PUSH1 0x2 MUL ADD PUSH1 0x1 ADD DUP1 SLOAD DUP1 PUSH1 0x20 MUL PUSH1 0x20 ADD PUSH1 0x40 MLOAD SWAP1 DUP2 ADD PUSH1 0x40 MSTORE DUP1 SWAP3 SWAP2 SWAP1 DUP2 DUP2 MSTORE PUSH1 0x20 ADD PUSH1 0x0 SWAP1 JUMPDEST DUP3 DUP3 LT ISZERO PUSH2 0x1BB JUMPI PUSH1 0x0 DUP5 DUP2 MSTORE PUSH1 0x20 SWAP1 DUP2 SWAP1 KECCAK256 PUSH1 0x40 DUP1 MLOAD PUSH1 0xA0 DUP2 ADD DUP3 MSTORE PUSH1 0x5 DUP7 MUL SWAP1 SWAP3 ADD DUP1 SLOAD PUSH1 0x1 PUSH1 0x1 PUSH1 0xA0 SHL SUB AND DUP4 MSTORE PUSH1 0x1 DUP1 DUP3 ADD SLOAD DUP5 DUP7 ADD MSTORE PUSH1 0x2 DUP3 ADD SLOAD SWAP3 DUP5 ADD SWAP3 SWAP1 SWAP3 MSTORE PUSH1 0x3 DUP2 ADD SLOAD PUSH1 0x60 DUP5 ADD MSTORE PUSH1 0x4 ADD SLOAD PUSH1 0x80 DUP4 ADD MSTORE SWAP1 DUP4 MSTORE SWAP1 SWAP3 ADD SWAP2 ADD PUSH2 0x154 JUMP JUMPDEST POP POP POP SWAP2 MSTORE POP SWAP1 POP PUSH1 0x0 JUMPDEST DUP2 PUSH1 0x20 ADD MLOAD MLOAD DUP2 LT ISZERO PUSH2 0x291 JUMPI PUSH1 0x0 PUSH2 0x209 DUP4 PUSH1 0x20 ADD MLOAD DUP4 DUP2 MLOAD DUP2 LT PUSH2 0x1FC JUMPI PUSH4 0x4E487B71 PUSH1 0xE0 SHL PUSH1 0x0 MSTORE PUSH1 0x32 PUSH1 0x4 MSTORE PUSH1 0x24 PUSH1 0x0 REVERT JUMPDEST PUSH1 0x20 MUL PUSH1 0x20 ADD ADD MLOAD PUSH2 0x29B JUMP JUMPDEST SWAP1 POP DUP1 DUP4 PUSH1 0x20 ADD MLOAD DUP4 DUP2 MLOAD DUP2 LT PUSH2 0x230 JUMPI PUSH4 0x4E487B71 PUSH1 0xE0 SHL PUSH1 0x0 MSTORE PUSH1 0x32 PUSH1 0x4 MSTORE PUSH1 0x24 PUSH1 0x0 REVERT JUMPDEST PUSH1 0x20 MUL PUSH1 0x20 ADD ADD MLOAD PUSH1 0x80 ADD DUP2 DUP2 MSTORE POP POP DUP3 PUSH1 0x20 ADD MLOAD DUP3 DUP2 MLOAD DUP2 LT PUSH2 0x264 JUMPI PUSH4 0x4E487B71 PUSH1 0xE0 SHL PUSH1 0x0 MSTORE PUSH1 0x32 PUSH1 0x4 MSTORE PUSH1 0x24 PUSH1 0x0 REVERT JUMPDEST PUSH1 0x20 MUL PUSH1 0x20 ADD ADD MLOAD PUSH1 0x20 ADD MLOAD DUP5 PUSH2 0x27B SWAP2 SWAP1 PUSH2 0x485 JUMP JUMPDEST SWAP4 POP PUSH2 0x28A SWAP1 POP PUSH1 0x1 DUP3 PUSH2 0x485 JUMP JUMPDEST SWAP1 POP PUSH2 0x1C6 JUMP JUMPDEST POP SWAP1 DUP2 MSTORE SWAP3 SWAP2 POP POP JUMP JUMPDEST PUSH1 0x0 DUP1 DUP3 PUSH1 0x40 ADD MLOAD TIMESTAMP PUSH2 0x2AE SWAP2 SWAP1 PUSH2 0x4DC JUMP JUMPDEST SWAP1 POP PUSH1 0x0 DUP4 PUSH1 0x60 ADD MLOAD PUSH1 0x1 EQ ISZERO PUSH2 0x316 JUMPI POP PUSH1 0x60 DUP4 ADD MLOAD PUSH1 0xC8 SWAP1 PUSH2 0x2D3 SWAP1 PUSH1 0x3C PUSH2 0x4BD JUMP JUMPDEST PUSH1 0x20 DUP6 ADD MLOAD DUP4 SWAP1 PUSH1 0x64 PUSH2 0x2E6 DUP2 DUP7 PUSH2 0x4DC JUMP JUMPDEST PUSH2 0x2F0 SWAP2 SWAP1 PUSH2 0x49D JUMP JUMPDEST PUSH2 0x2FA SWAP2 SWAP1 PUSH2 0x4BD JUMP JUMPDEST PUSH2 0x304 SWAP2 SWAP1 PUSH2 0x4BD JUMP JUMPDEST PUSH2 0x30E SWAP2 SWAP1 PUSH2 0x49D JUMP JUMPDEST SWAP5 SWAP4 POP POP POP POP JUMP JUMPDEST DUP4 PUSH1 0x60 ADD MLOAD PUSH1 0x2 EQ ISZERO PUSH2 0x32C JUMPI POP PUSH1 0x2 SLOAD PUSH2 0x36A JUMP JUMPDEST DUP4 PUSH1 0x60 ADD MLOAD PUSH1 0x3 EQ ISZERO PUSH2 0x342 JUMPI POP PUSH1 0x3 SLOAD PUSH2 0x36A JUMP JUMPDEST DUP4 PUSH1 0x60 ADD MLOAD PUSH1 0x4 EQ ISZERO PUSH2 0x358 JUMPI POP PUSH1 0x4 SLOAD PUSH2 0x36A JUMP JUMPDEST DUP4 PUSH1 0x60 ADD MLOAD PUSH1 0x5 EQ ISZERO PUSH2 0x36A JUMPI POP PUSH1 0x5 SLOAD JUMPDEST PUSH1 0x0 DUP5 PUSH1 0x60 ADD MLOAD PUSH1 0x18 PUSH2 0x37D SWAP2 SWAP1 PUSH2 0x4BD JUMP JUMPDEST PUSH2 0x389 SWAP1 PUSH2 0xE10 PUSH2 0x4BD JUMP JUMPDEST PUSH1 0x20 DUP7 ADD MLOAD DUP5 SWAP1 PUSH1 0x64 PUSH2 0x39C DUP2 DUP8 PUSH2 0x4DC JUMP JUMPDEST PUSH2 0x3A6 SWAP2 SWAP1 PUSH2 0x49D JUMP JUMPDEST PUSH2 0x3B0 SWAP2 SWAP1 PUSH2 0x4BD JUMP JUMPDEST PUSH2 0x3BA SWAP2 SWAP1 PUSH2 0x4BD JUMP JUMPDEST PUSH2 0x3C4 SWAP2 SWAP1 PUSH2 0x49D JUMP JUMPDEST SWAP6 SWAP5 POP POP POP POP POP JUMP JUMPDEST PUSH1 0x0 PUSH1 0x20 DUP3 DUP5 SUB SLT ISZERO PUSH2 0x3DE JUMPI DUP1 DUP2 REVERT JUMPDEST DUP2 CALLDATALOAD PUSH1 0x1 PUSH1 0x1 PUSH1 0xA0 SHL SUB DUP2 AND DUP2 EQ PUSH2 0x3F4 JUMPI DUP2 DUP3 REVERT JUMPDEST SWAP4 SWAP3 POP POP POP JUMP JUMPDEST PUSH1 0x0 PUSH1 0x20 DUP1 DUP4 MSTORE PUSH1 0x60 DUP1 DUP5 ADD DUP6 MLOAD DUP4 DUP7 ADD MSTORE DUP3 DUP7 ADD MLOAD PUSH1 0x40 DUP1 DUP2 DUP9 ADD MSTORE DUP3 DUP3 MLOAD DUP1 DUP6 MSTORE PUSH1 0x80 SWAP5 POP DUP5 DUP10 ADD SWAP2 POP DUP7 DUP5 ADD SWAP4 POP DUP8 JUMPDEST DUP2 DUP2 LT ISZERO PUSH2 0x476 JUMPI DUP5 MLOAD DUP1 MLOAD PUSH1 0x1 PUSH1 0x1 PUSH1 0xA0 SHL SUB AND DUP5 MSTORE DUP9 DUP2 ADD MLOAD DUP10 DUP6 ADD MSTORE DUP5 DUP2 ADD MLOAD DUP6 DUP6 ADD MSTORE DUP8 DUP2 ADD MLOAD DUP9 DUP6 ADD MSTORE DUP7 ADD MLOAD DUP7 DUP5 ADD MSTORE SWAP4 DUP8 ADD SWAP4 PUSH1 0xA0 SWAP1 SWAP3 ADD SWAP2 PUSH1 0x1 ADD PUSH2 0x42E JUMP JUMPDEST POP SWAP1 SWAP10 SWAP9 POP POP POP POP POP POP POP POP POP JUMP JUMPDEST PUSH1 0x0 DUP3 NOT DUP3 GT ISZERO PUSH2 0x498 JUMPI PUSH2 0x498 PUSH2 0x4F3 JUMP JUMPDEST POP ADD SWAP1 JUMP JUMPDEST PUSH1 0x0 DUP3 PUSH2 0x4B8 JUMPI PUSH4 0x4E487B71 PUSH1 0xE0 SHL DUP2 MSTORE PUSH1 0x12 PUSH1 0x4 MSTORE PUSH1 0x24 DUP2 REVERT JUMPDEST POP DIV SWAP1 JUMP JUMPDEST PUSH1 0x0 DUP2 PUSH1 0x0 NOT DIV DUP4 GT DUP3 ISZERO ISZERO AND ISZERO PUSH2 0x4D7 JUMPI PUSH2 0x4D7 PUSH2 0x4F3 JUMP JUMPDEST POP MUL SWAP1 JUMP JUMPDEST PUSH1 0x0 DUP3 DUP3 LT ISZERO PUSH2 0x4EE JUMPI PUSH2 0x4EE PUSH2 0x4F3 JUMP JUMPDEST POP SUB SWAP1 JUMP JUMPDEST PUSH4 0x4E487B71 PUSH1 0xE0 SHL PUSH1 0x0 MSTORE PUSH1 0x11 PUSH1 0x4 MSTORE PUSH1 0x24 PUSH1 0x0 REVERT INVALID LOG2 PUSH5 0x6970667358 0x22 SLT KECCAK256 0xB4 0xA5 SELFBALANCE COINBASE PUSH17 0xACE59E360CD0F9E7B011D4C93C807CA4BE SHL SWAP15 JUMPDEST CREATE2 0x1F 0xBA MOD 0x2C MULMOD GT PUSH5 0x736F6C6343 STOP ADDMOD DIV STOP CALLER "
		},
		"gasEstimates": {
			"creation": {
				"codeDepositCost": "268600",
				"executionCost": "101151",
				"totalCost": "369751"
			},
			"external": {
				"hasStake(address)": "infinite",
				"rewardFor10Days()": "962",
				"rewardFor1Year()": "1028",
				"rewardFor30Days()": "984",
				"rewardFor6Months()": "1006"
			},
			"internal": {
				"_addStakeholder(address)": "infinite",
				"_stake(uint256,uint8)": "infinite",
				"_withdrawStake(uint256,uint256)": "infinite",
				"calculateStakeReward(struct StakingReward.Stake memory)": "infinite"
			}
		},
		"methodIdentifiers": {
			"hasStake(address)": "e73e14bf",
			"rewardFor10Days()": "0db648ab",
			"rewardFor1Year()": "cb25131e",
			"rewardFor30Days()": "c2bf5250",
			"rewardFor6Months()": "c306ce28"
		}
	},
	"abi": [
		{
			"inputs": [],
			"stateMutability": "nonpayable",
			"type": "constructor"
		},
		{
			"anonymous": false,
			"inputs": [
				{
					"indexed": true,
					"internalType": "address",
					"name": "user",
					"type": "address"
				},
				{
					"indexed": false,
					"internalType": "uint256",
					"name": "amount",
					"type": "uint256"
				},
				{
					"indexed": false,
					"internalType": "uint256",
					"name": "index",
					"type": "uint256"
				},
				{
					"indexed": false,
					"internalType": "uint256",
					"name": "timestamp",
					"type": "uint256"
				}
			],
			"name": "Staked",
			"type": "event"
		},
		{
			"inputs": [
				{
					"internalType": "address",
					"name": "_staker",
					"type": "address"
				}
			],
			"name": "hasStake",
			"outputs": [
				{
					"components": [
						{
							"internalType": "uint256",
							"name": "total_amount",
							"type": "uint256"
						},
						{
							"components": [
								{
									"internalType": "address",
									"name": "user",
									"type": "address"
								},
								{
									"internalType": "uint256",
									"name": "amount",
									"type": "uint256"
								},
								{
									"internalType": "uint256",
									"name": "since",
									"type": "uint256"
								},
								{
									"internalType": "uint256",
									"name": "period",
									"type": "uint256"
								},
								{
									"internalType": "uint256",
									"name": "claimable",
									"type": "uint256"
								}
							],
							"internalType": "struct StakingReward.Stake[]",
							"name": "stakes",
							"type": "tuple[]"
						}
					],
					"internalType": "struct StakingReward.StakingSummary",
					"name": "",
					"type": "tuple"
				}
			],
			"stateMutability": "view",
			"type": "function"
		},
		{
			"inputs": [],
			"name": "rewardFor10Days",
			"outputs": [
				{
					"internalType": "uint256",
					"name": "",
					"type": "uint256"
				}
			],
			"stateMutability": "view",
			"type": "function"
		},
		{
			"inputs": [],
			"name": "rewardFor1Year",
			"outputs": [
				{
					"internalType": "uint256",
					"name": "",
					"type": "uint256"
				}
			],
			"stateMutability": "view",
			"type": "function"
		},
		{
			"inputs": [],
			"name": "rewardFor30Days",
			"outputs": [
				{
					"internalType": "uint256",
					"name": "",
					"type": "uint256"
				}
			],
			"stateMutability": "view",
			"type": "function"
		},
		{
			"inputs": [],
			"name": "rewardFor6Months",
			"outputs": [
				{
					"internalType": "uint256",
					"name": "",
					"type": "uint256"
				}
			],
			"stateMutability": "view",
			"type": "function"
		}
	]
}